:020000040800F2
:100000000000052085190008091500080F150008D3
:10001000151500081B150008211500080000000038
:10002000000000000000000000000000271500088C
:1000300035150008000000004315000851150008A0
:10004000D5190008D5190008D5190008D5190008D8
:10005000D5190008D51900085D150008D519000844
:10006000D51900086B150008D5190008D519000826
:10007000D5190008D5190008D5190008D5190008A8
:10008000D5190008D5190008D5190008D519000898
:10009000D5190008D5190008D519000879150008E8
:1000A000D5190008D5190008D5190008D519000878
:1000B00089150008D5190008D5190008D5190008B8
:1000C000D5190008D5190008D5190008D519000858
:1000D000D5190008D5190008D51900089D15000884
:1000E000B1150008D5190008D5190008D519000860
:1000F000D5190008D5190008D5190008D519000828
:10010000D5190008D5190008D5190008D519000817
:10011000D5190008D5190008D5190008D519000807
:10012000D5190008D5190008D5190008D5190008F7
:10013000D5190008D5190008D5190008D5190008E7
:10014000D5190008D5190008D5190008D5190008D7
:10015000D5190008D5190008D5190008D5190008C7
:10016000D5190008D5190008D5190008D5190008B7
:10017000D5190008D5190008D5190008000000009D
:10018000D5190008D5190008D5190008D519000897
:10019000D5190008D5190008D5190008D519000887
:1001A000D5190008D5190008D5190008D519000877
:1001B000D5190008D5190008D5190008D519000867
:0801C000D5190008D51900084B
:1001D00010B5054C237833B9044B13B10448AFF381
:1001E00000800123237010BDE80100200000000002
:1001F0003C84000808B5034B1BB103490348AFF327
:10020000008008BD00000000EC0100203C840008D4
:10021000034613F8012B002AFBD1181A0138704746
:1002200001F0FF01102A2BDB10F0070F08D010F8A7
:10023000013B013A8B422DD010F0070F42B3F6D1AB
:10024000F0B441EA012141EA014122F007047FF0C4
:1002500000070023F0E80256083C85EA010586EA1B
:10026000010685FA47F5A3FA87F586FA47F6A5FA57
:1002700087F68EB9EED1F0BC01F0FF0102F0070263
:1002800032B110F8013B013A83EA010313B1F8D10E
:100290000020704701387047002D06BF35460338EF
:1002A000073815F0010F07D1013015F4807F02BF28
:1002B000013015F4C03F0130F0BC0138704700BF79
:1002C00081F0004102E000BF83F0004330B54FEA07
:1002D00041044FEA430594EA050F08BF90EA020F74
:1002E0001FBF54EA000C55EA020C7FEA645C7FEA07
:1002F000655C00F0E2804FEA5454D4EB5555B8BF2A
:100300006D420CDD2C4480EA020281EA030382EA9A
:10031000000083EA010180EA020281EA0303362D2C
:1003200088BF30BD11F0004F4FEA01314FF4801CFF
:100330004CEA113102D0404261EB410113F0004F11
:100340004FEA03334CEA133302D0524263EB4303C8
:1003500094EA050F00F0A780A4F10104D5F1200E66
:100360000DDB02FA0EFC22FA05F2801841F10001C1
:1003700003FA0EF2801843FA05F359410EE0A5F195
:1003800020050EF1200E012A03FA0EFC28BF4CF0C6
:10039000020C43FA05F3C01851EBE37101F000457C
:1003A00007D54FF0000EDCF1000C7EEB00006EEB89
:1003B0000101B1F5801F1BD3B1F5001F0CD3490813
:1003C0005FEA30004FEA3C0C04F101044FEA44526A
:1003D00012F5800F80F09A80BCF1004F08BF5FEAF1
:1003E000500C50F1000041EB045141EA050130BDD1
:1003F0005FEA4C0C404141EB0101013C28BFB1F5E3
:10040000801FE9D291F0000F04BF01460020B1FA2D
:1004100081F308BF2033A3F10B03B3F120020CDA00
:100420000C3208DD02F1140CC2F10C0201FA0CF0DE
:1004300021FA02F10CE002F11402D8BFC2F1200C43
:1004400001FA02F120FA0CFCDCBF41EA0C019040F9
:10045000E41AA2BF01EB0451294330BD6FEA040442
:100460001F3C1CDA0C340EDC04F11404C4F120022D
:1004700020FA04F001FA02F340EA030021FA04F33F
:1004800045EA030130BDC4F10C04C4F1200220FA96
:1004900002F001FA04F340EA0300294630BD21FAD4
:1004A00004F0294630BD94F0000F83F4801306BF9A
:1004B00081F480110134013D4EE77FEA645C18BF8E
:1004C0007FEA655C29D094EA050F08BF90EA020F25
:1004D00005D054EA000C04BF1946104630BD91EA1D
:1004E000030F1EBF0021002030BD5FEA545C05D120
:1004F0004000494128BF41F0004130BD14F580045F
:100500003CBF01F5801130BD01F0004545F0FE41D2
:1005100041F470014FF0000030BD7FEA645C1ABF07
:10052000194610467FEA655C1CBF0B46024650EA3E
:10053000013406BF52EA033591EA030F41F400216A
:1005400030BD00BF90F0000F04BF0021704730B5F0
:100550004FF4806404F132044FF000054FF00001C5
:1005600050E700BF90F0000F04BF0021704730B586
:100570004FF4806404F1320410F0004548BF40425B
:100580004FF000013EE700BF42004FEAE2014FEAB0
:1005900031014FEA02701FBF12F07F4393F07F4F8B
:1005A00081F06051704732F07F4208BF704793F08E
:1005B0007F4F04BF41F40021704730B54FF46074A1
:1005C00001F0004521F000411CE700BF50EA0102A4
:1005D00008BF704730B54FF000050AE050EA01024D
:1005E00008BF704730B511F0004502D5404261EBBD
:1005F00041014FF4806404F132045FEA915C3FF4FE
:10060000D8AE4FF003025FEADC0C18BF03325FEA9A
:10061000DC0C18BF033202EBDC02C2F1200300FA4B
:1006200003FC20FA02F001FA03FE40EA0E0021FA70
:1006300002F11444BDE600BF70B54FF0FF0C4CF45E
:10064000E06C1CEA11541DBF1CEA135594EA0C0F10
:1006500095EA0C0F00F0DEF82C4481EA030621EA4B
:100660004C5123EA4C5350EA013518BF52EA033586
:1006700041F4801143F4801338D0A0FB02CE4FF038
:100680000005E1FB02E506F00042E0FB03E54FF068
:100690000006E1FB03569CF0000F18BF4EF0010E60
:1006A000A4F1FF04B6F5007F64F5407404D25FEA5C
:1006B0004E0E6D4146EB060642EAC62141EA55510F
:1006C0004FEAC52040EA5E504FEACE2EB4F1FD0C51
:1006D00088BFBCF5E06F1ED8BEF1004F08BF5FEACF
:1006E000500E50F1000041EB045170BD06F0004681
:1006F00046EA010140EA020081EA0301B4EB5C042E
:10070000C2BFD4EB0C0541EA045170BD41F4801125
:100710004FF0000E013C00F3AB8014F1360FDEBF4A
:10072000002001F0004170BDC4F10004203C35DA26
:100730000C341BDC04F11404C4F1200500FA05F3A9
:1007400020FA04F001FA05F240EA020001F000424A
:1007500021F0004110EBD37021FA04F642EB0601C0
:100760005EEA430E08BF20EAD37070BDC4F10C04EA
:10077000C4F1200500FA04F320FA05F001FA04F2AE
:1007800040EA020001F0004110EBD37041F100019A
:100790005EEA430E08BF20EAD37070BDC4F12005A5
:1007A00000FA05F24EEA020E20FA04F301FA05F20D
:1007B00043EA020321FA04F001F0004121FA04F2B5
:1007C00020EA020000EBD3705EEA430E08BF20EA85
:1007D000D37070BD94F0000F0FD101F000464000BF
:1007E00041EB010111F4801F08BF013CF7D041EA41
:1007F000060195F0000F18BF704703F00046520045
:1008000043EB030313F4801F08BF013DF7D043EA15
:100810000603704794EA0C0F0CEA135518BF95EACB
:100820000C0F0CD050EA410618BF52EA4306D1D152
:1008300081EA030101F000414FF0000070BD50EA71
:10084000410606BF1046194652EA430619D094EAFB
:100850000C0F02D150EA013613D195EA0C0F05D1E5
:1008600052EA03361CBF104619460AD181EA030139
:1008700001F0004141F0FE4141F470014FF00000F1
:1008800070BD41F0FE4141F4780170BD70B54FF08C
:10089000FF0C4CF4E06C1CEA11541DBF1CEA13550C
:1008A00094EA0C0F95EA0C0F00F0A7F8A4EB0504EE
:1008B00081EA030E52EA03354FEA013100F08880E5
:1008C0004FEA03334FF0805545EA131343EA1263AE
:1008D0004FEA022245EA111545EA10654FEA002663
:1008E0000EF000419D4208BF964244F1FD0404F51C
:1008F000407402D25B084FEA3202B61A65EB030578
:100900005B084FEA32024FF480104FF4002CB6EB34
:10091000020E75EB030E22BFB61A754640EA0C00B4
:100920005B084FEA3202B6EB020E75EB030E22BFF4
:10093000B61A754640EA5C005B084FEA3202B6EB35
:10094000020E75EB030E22BFB61A754640EA9C00F4
:100950005B084FEA3202B6EB020E75EB030E22BFC4
:10096000B61A754640EADC0055EA060E18D04FEA82
:10097000051545EA16754FEA06164FEAC30343EA22
:1009800052734FEAC2025FEA1C1CC0D111F4801FEF
:100990000BD141EA00014FF000004FF0004CB6E7E8
:1009A00011F4801F04BF01430020B4F1FD0C88BF87
:1009B000BCF5E06F3FF6AFAEB5EB030C04BFB6EB92
:1009C000020C5FEA500C50F1000041EB045170BD85
:1009D0000EF0004E4EEA113114EB5C04C2BFD4EBB2
:1009E0000C0541EA045170BD41F480114FF0000E36
:1009F000013C90E645EA060E8DE60CEA135594EAB2
:100A00000C0F08BF95EA0C0F3FF43BAF94EA0C0FB4
:100A10000AD150EA01347FF434AF95EA0C0F7FF429
:100A200025AF104619462CE795EA0C0F06D152EA7D
:100A300003353FF4FDAE1046194622E750EA410661
:100A400018BF52EA43067FF4C5AE50EA41047FF472
:100A50000DAF52EA43057FF4EBAE12E74FF0FF3CD7
:100A600006E000BF4FF0010C02E000BF4FF0010CA8
:100A70004DF804CD4FEA410C7FEA6C5C4FEA430C21
:100A800018BF7FEA6C5C1BD001B050EA410C0CBF70
:100A900052EA430C91EA030F02BF90EA020F0020D2
:100AA000704710F1000F91EA030F58BF994208BF39
:100AB00090422CBFD8176FEAE37040F001007047F6
:100AC0004FEA410C7FEA6C5C02D150EA013C07D14D
:100AD0004FEA430C7FEA6C5CD6D152EA033CD3D098
:100AE0005DF8040B704700BF8446104662468C4692
:100AF0001946634600E000BF01B5FFF7B7FF0028C5
:100B000048BF10F1000F01BD4DF808EDFFF7F4FFED
:100B10000CBF012000205DF808FB00BF4DF808ED78
:100B2000FFF7EAFF34BF012000205DF808FB00BF9B
:100B30004DF808EDFFF7E0FF94BF012000205DF8BD
:100B400008FB00BF4DF808EDFFF7CEFF94BF012072
:100B500000205DF808FB00BF4DF808EDFFF7C4FF6B
:100B600034BF012000205DF808FB00BF4FEA410CB4
:100B70007FEA6C5C02D150EA013C0AD14FEA430C97
:100B80007FEA6C5C02D152EA033C02D14FF00000D4
:100B900070474FF0010070474A0011D212F5001261
:100BA00011D20DD56FF47873B3EB62520ED44FEAC5
:100BB000C12343F0004343EA505323FA02F0704745
:100BC0004FF00000704750EA013002D14FF0FF3083
:100BD00070474FF0000070474FEA4102B2F1E04326
:100BE00024BFB3F5001CDCF1FE5C0DD901F0004C14
:100BF0004FEAC0024CEA5070B2F1004F40EB830064
:100C000008BF20F00100704711F0804F21D113F18F
:100C10003872BCBF01F00040704741F480114FEAC8
:100C20005252C2F11802C2F1200C10FA0CF320FA51
:100C300002F018BF40F001004FEAC1234FEAD3236E
:100C400003FA0CFC40EA0C0023FA02F34FEA4303D8
:100C5000CCE77FEA625307D150EA01331EBF4FF061
:100C6000FE4040F44000704701F0004040F0FE407C
:100C700040F40000704700BF53B94AB9002908BFCB
:100C800000281CBF4FF0FF314FF0FF3000F0AAB931
:100C9000ADF1080C6DE904CE00F03CF8DDF804E09D
:100CA000DDE9022304B0704738B500220023044672
:100CB0000D46FFF733FF28B920462946BDE83840E6
:100CC00000F00AB8204605F1004100F005F8404266
:100CD00061EB410138BD00BFD0B50C4B0022064688
:100CE0000F46FFF7A9FCFFF757FF0446FFF72AFC62
:100CF000074B0022FFF7A0FC02460B463046394660
:100D0000FFF7E2FAFFF748FF2146D0BD0000F03DB3
:100D10000000F0412DE9F047089D04468E46002B67
:100D20004DD18A42944669D9B2FA82F252B101FA9F
:100D300002F3C2F1200120FA01F10CFA02FC41EAAF
:100D4000030E94404FEA1C48210CBEFBF8F61FFA34
:100D50008CF708FB16E341EA034306FB07F19942CF
:100D60000AD91CEB030306F1FF3080F01F81994282
:100D700040F21C81023E63445B1AA4B2B3FBF8F05C
:100D800008FB103344EA034400FB07F7A7420AD9E3
:100D90001CEB040400F1FF3380F00A81A74240F20B
:100DA00007816444023840EA0640E41B00261DB176
:100DB000D4400023C5E900433146BDE8F0878B42AB
:100DC00009D9002D00F0EF800026C5E9000130466A
:100DD0003146BDE8F087B3FA83F6002E4AD18B4244
:100DE00002D3824200F2F980841A61EB03030120EE
:100DF0009E46002DE0D0C5E9004EDDE702B9FFDEDA
:100E0000B2FA82F2002A40F09280A1EB0C014FEA84
:100E10001C471FFA8CFE0126200CB1FBF7F307FBE1
:100E2000131140EA01410EFB03F0884208D91CEB84
:100E3000010103F1FF3802D2884200F2CB80434621
:100E4000091AA4B2B1FBF7F007FB101144EA014400
:100E50000EFB00FEA64508D91CEB040400F1FF318F
:100E600002D2A64500F2BB800846A4EB0E0440EA7D
:100E700003409CE7C6F12007B34022FA07FC4CEA86
:100E8000030C20FA07F401FA06F31C43F9404FEA79
:100E90001C4900FA06F3B1FBF9F8200C1FFA8CFE8E
:100EA00009FB181140EA014108FB0EF0884202FAE2
:100EB00006F20BD91CEB010108F1FF3A80F08880A3
:100EC000884240F28580A8F102086144091AA4B260
:100ED000B1FBF9F009FB101144EA014100FB0EFEE1
:100EE0008E4508D91CEB010100F1FF346CD28E4510
:100EF0006AD90238614440EA0840A0FB0294A1EBA1
:100F00000E01A142C846A64656D353D05DB1B3EBFD
:100F1000080261EB0E0101FA07F722FA06F3F1402D
:100F20001F43C5E9007100263146BDE8F087C2F1D4
:100F30002003D8400CFA02FC21FA03F3914001434C
:100F40004FEA1C471FFA8CFEB3FBF7F007FB103685
:100F50000B0C43EA064300FB0EF69E4204FA02F431
:100F600008D91CEB030300F1FF382FD29E422DD984
:100F7000023863449B1B89B2B3FBF7F607FB1633B9
:100F800041EA034106FB0EF38B4208D91CEB010139
:100F900006F1FF3816D28B4214D9023E6144C91AB9
:100FA00046EA004638E72E46284605E70646E3E6C9
:100FB0001846F8E64B45A9D2B9EB020864EB0C0ED3
:100FC0000138A3E74646EAE7204694E74046D1E7E2
:100FD000D0467BE7023B614432E7304609E7644490
:100FE000023842E7704700BF80B582B000AF78603A
:100FF0007B681A687B689B881946104601F0C9F81F
:1010000000BF0837BD4680BD80B582B000AF7860B4
:101010007B681A687B689B881946104601F088F83F
:101020000346002B14BF01230023DBB21846083708
:10103000BD4680BD80B582B000AF78607868FFF7AC
:10104000D3FF00BF0837BD4680BD80B584B000AF78
:1010500078607868FFF7D8FF0346FB737B689B795D
:10106000012B01D1FB7B03E0FB7B83F00103DBB2AF
:1010700018461037BD4680BD80B58CB000AF07F173
:101080001C0300221A605A609A60DA601A61B34B3E
:101090001B6BB24A43F004031363B04B1B6B03F0AA
:1010A0000403BB61BB69AD4B1B6BAC4A43F020032F
:1010B0001363AA4B1B6B03F020037B617B69A74B77
:1010C0001B6BA64A43F080031363A44B1B6B03F016
:1010D00080033B613B69A14B1B6BA04A43F00103BA
:1010E00013639E4B1B6B03F00103FB60FB689B4B80
:1010F0001B6B9A4A43F002031363984B1B6B03F07C
:101100000203BB60BB68954B1B6B944A43F008031A
:101110001363924B1B6B03F008037B607B688F4B60
:101120001B6B8E4A43F0400313638C4B1B6B03F025
:1011300040033B603B6800220821894801F010F819
:1011400000220821874801F00BF8002244F28101B7
:10115000854801F005F800224021844801F000F89C
:101160004FF40053FB614FF488133B6200237B6212
:1011700007F11C0319467E4800F02EFE0823FB6190
:1011800001233B6200237B620223BB6207F11C0345
:101190001946734800F020FE2023FB614FF48813AA
:1011A0003B6200237B6207F11C0319466C4800F088
:1011B00013FE0123FB614FF404133B6201237B62A6
:1011C00007F11C0319466A4800F006FE3223FB6152
:1011D00002233B6200237B620323BB620B23FB627F
:1011E00007F11C031946624800F0F6FD0823FB6175
:1011F0004FF488133B6202237B6207F11C031946FC
:101200005B4800F0E9FD8623FB6102233B6200237B
:101210007B620323BB620B23FB6207F11C031946AD
:10122000504800F0D9FD0823FB6101233B620223F3
:101230007B620023BB6207F11C031946494800F09A
:10124000CBFD44F28103FB6101233B6200237B62FF
:101250000023BB6207F11C031946434800F0BCFDA4
:101260004FF40053FB6102233B6200237B620323A4
:10127000BB620B23FB6207F11C0319463A4800F0DE
:10128000ABFD4023FB6101233B6200237B62002313
:10129000BB6207F11C031946344800F09DFD802312
:1012A000FB6100233B6200237B6207F11C031946AC
:1012B0002E4800F091FD4FF4E853FB6102233B629E
:1012C00000237B620323BB620A23FB6207F11C033A
:1012D0001946244800F080FD4FF40073FB610023A1
:1012E0003B6200237B6207F11C0319461D4800F096
:1012F00073FD4FF42053FB6102233B6200237B62AA
:101300000323BB620B23FB6207F11C03194617483A
:1013100000F062FD00220021062000F094FC06206F
:1013200000F0ADFC00220021092000F08CFC092017
:1013300000F0A5FC00220021172000F084FC1720FB
:1013400000F09DFC00220021282000F07CFC2820D9
:1013500000F095FC00BF3037BD4680BD003802402C
:101360000014024000000240000402400018024045
:101370000008024080B582B000AF78607B680A4AFE
:1013800093420DD10948FFF755FE0848FFF75DFE6F
:101390000346002B14BF01230023DAB2044B1A705A
:1013A00000BF0837BD4680BD0C02002000000020B1
:1013B0000402002080B500AF00F00DFB00F00CF837
:1013C000FFF75AFE00F046FA00F0D2F9014802F0A9
:1013D00091F8FEE70C02002080B594B000AF07F151
:1013E000200330220021184603F006FD07F10C030C
:1013F00000221A605A609A60DA601A6100F008FFF1
:101400002A4B1B6C294A43F080531364274B1B6CF7
:1014100003F08053BB60BB68254B1B68244A43F430
:1014200040431360224B1B6803F440437B607B689E
:1014300001233B624FF4A0237B620223BB634FF482
:101440008003FB6304233B64D8237B640223BB64D7
:101450000323FB6407F12003184600F039FF03461D
:10146000002B01D000F026F800F0E2FE0346002B2E
:1014700001D000F01FF80F23FB6002233B61002323
:101480007B614FF4A053BB614FF4A053FB6107F1A4
:101490000C030721184601F0BFF90346002B01D0C9
:1014A00000F008F800BF5037BD4680BD003802404C
:1014B0000070004080B400AF72B600BFFEE70000CD
:1014C00080B483B000AF0F4B1B6C0E4A43F08053C7
:1014D00013640C4B1B6C03F080537B607B68094BDF
:1014E0005B6C084A43F480435364064B5B6C03F423
:1014F00080433B603B6800BF0C37BD465DF8047B12
:10150000704700BF0038024080B400AFFEE780B4EF
:1015100000AFFEE780B400AFFEE780B400AFFEE7A7
:1015200080B400AFFEE780B400AF00BFBD465DF8F9
:10153000047B704780B400AF00BFBD465DF8047BFC
:10154000704780B400AF00BFBD465DF8047B7047B4
:1015500080B500AF00F07CFA00BF80BD80B500AF61
:10156000012000F031FE00BF80BD80B500AF082033
:1015700000F02AFE00BF80BD80B500AF202000F043
:1015800023FE00BF80BD000080B500AF024802F01E
:1015900029F800BF80BD00BF0C02002080B500AF5D
:1015A000024802F065FC00BF80BD00BF5802002069
:1015B00080B500AF4FF4005000F006FE00BF80BDC4
:1015C00080B400AF01231846BD465DF8047B704728
:1015D00080B582B000AF7860396003F0E3FB03466A
:1015E00016221A604FF0FF3318460837BD4680BDFB
:1015F00080B582B000AF78604FF0FF317868FFF7B8
:10160000E7FFFEE780B586B000AFF860B9607A60AA
:1016100000237B610AE0AFF300800146BB685A1CDF
:10162000BA60CAB21A707B6901337B617A697B68E0
:101630009A42F0DB7B6818461837BD4680BD80B5FE
:1016400086B000AFF860B9607A6000237B6109E082
:10165000BB685A1CBA601B781846AFF300807B69E0
:1016600001337B617A697B689A42F1DB7B681846BB
:101670001837BD4680BD80B483B000AF78604FF0AE
:10168000FF3318460C37BD465DF8047B704780B4C5
:1016900083B000AF786039603B684FF400525A6005
:1016A000002318460C37BD465DF8047B704780B4B4
:1016B00083B000AF7860012318460C37BD465DF853
:1016C000047B704780B485B000AFF860B9607A6081
:1016D000002318461437BD465DF8047B70470000B0
:1016E00080B586B000AF7860144A154BD31A7B6181
:1016F0007B693B61134B1B68002B02D1114B124AD3
:101700001A60104B1A687B6813443A699A4207D2F0
:1017100003F048FB03460C221A604FF0FF3309E048
:10172000084B1B68FB60074B1A687B681344054A2B
:101730001360FB6818461837BD4680BD00000520C1
:101740000004000008020020F802002080B400AF6E
:10175000064BD3F88830054A43F47003C2F888304A
:1017600000BFBD465DF8047B704700BF00ED00E0A0
:1017700080B588B000AF07F1100300221A605A60EC
:101780009A60DA603B1D00221A605A609A601E4B14
:101790004FF080421A601C4B6B225A601A4B002299
:1017A0009A60194B41F28732DA60174B00221A61B6
:1017B000154B00229A61144801F044FE0346002BA9
:1017C00001D0FFF777FE4FF480533B6107F1100320
:1017D00019460D4802F026F80346002B01D0FFF70A
:1017E00069FE00237B600023FB603B1D1946064811
:1017F00002F044FA0346002B01D0FFF75BFE00BF66
:101800002037BD4680BD00BF0C02002080B584B0EB
:1018100000AF78607B681B68B3F1804F13D10C4B2D
:101820001B6C0B4A43F001031364094B1B6C03F060
:101830000103FB60FB68002200211C2000F003FA7A
:101840001C2000F01CFA00BF1037BD4680BD00BF51
:101850000038024080B500AF144B154A1A60134B94
:101860004FF416525A60114B00229A600F4B00221F
:10187000DA600E4B00221A610C4B0C225A610B4BA2
:1018800000229A61094B0022DA61084B00221A6299
:10189000064B00225A62054802F09CFA0346002BD0
:1018A00001D0FFF707FE00BF80BD00BF5802002037
:1018B0000048004080B5AAB000AF786007F19403FB
:1018C00000221A605A609A60DA601A6107F1100308
:1018D00084220021184603F08FFA7B681B68264A91
:1018E000934244D14FF480733B611023FB6507F1B1
:1018F0001003184601F0B6F90346002B01D0FFF79C
:10190000D9FD1E4B1B6C1D4A43F4802313641B4BF3
:101910001B6C03F48023FB60FB68184B1B6B174A9E
:1019200043F008031363154B1B6B03F00803BB6004
:10193000BB684FF44073C7F894300223C7F898305F
:101940000023C7F89C300323C7F8A0300723C7F84B
:10195000A43007F194031946094800F03DFA00222B
:101960000021272000F06FF9272000F088F900BF40
:10197000A837BD4680BD00BF004800400038024087
:10198000000C0240DFF834D00D480E490E4A002307
:1019900002E0D458C4500433C4188C42F9D30B4A23
:1019A0000B4C002301E013600432A242FBD3FFF78B
:1019B000CDFE03F0FDF9FFF7FDFC704700000520A8
:1019C00000000020E8010020BC880008E801002099
:1019D000F4020020FEE780B500AF032000F028F9F4
:1019E000002000F005F8FFF76BFD0023184680BDCE
:1019F00080B582B000AF7860124B1A68124B1B782A
:101A000019464FF47A73B3FBF1F3B2FBF3F31846C4
:101A100000F043F90346002B01D001230EE07B6860
:101A20000F2B0AD8002279684FF0FF3000F00BF935
:101A3000064A7B681360002300E00123184608373C
:101A4000BD4680BD08000020100000200C000020D2
:101A500080B400AF064B1B781A46064B1B68134434
:101A6000044A136000BFBD465DF8047B704700BFA9
:101A700010000020E002002080B400AF034B1B6880
:101A80001846BD465DF8047B704700BFE0020020A9
:101A900080B485B000AF78607B6803F00703FB601B
:101AA0000B4BDB68BB60BA684FF6FF031340BB60AB
:101AB000FB681A02BB681A43064B1343BB60044A17
:101AC000BB68D36000BF1437BD465DF8047B704728
:101AD00000ED00E00000FA0580B400AF044BDB68C5
:101AE0001B0A03F007031846BD465DF8047B7047E8
:101AF00000ED00E080B483B000AF0346FB7197F9BE
:101B00000730002B0BDBFB7903F01F02074997F925
:101B100007305B09012000FA02F241F8232000BFE0
:101B20000C37BD465DF8047B704700BF00E100E064
:101B300080B483B000AF03463960FB7197F907307A
:101B4000002B0ADB3B68DAB20C4997F90730120127
:101B5000D2B20B4483F800230AE03B68DAB20849AA
:101B6000FB7903F00F03043B1201D2B20B441A7647
:101B700000BF0C37BD465DF8047B704700E100E014
:101B800000ED00E080B489B000AFF860B9607A6021
:101B9000FB6803F00703FB61FB69C3F10703042B38
:101BA00028BF0423BB61FB690433062B02D9FB6900
:101BB000033B00E000237B614FF0FF32BB6902FA78
:101BC00003F3DA43BB681A407B699A404FF0FF3158
:101BD0007B6901FA03F3D9437B680B401343184632
:101BE0002437BD465DF8047B7047000080B582B0A5
:101BF00000AF78607B68013BB3F1807F01D30123A4
:101C00000FE00A4A7B68013B53600F214FF0FF3021
:101C1000FFF78EFF054B00229A60044B07221A60E3
:101C2000002318460837BD4680BD00BF10E000E025
:101C300080B582B000AF78607868FFF729FF00BFF9
:101C40000837BD4680BD80B586B000AF0346B96099
:101C50007A60FB7300237B61FFF73EFF78617A684F
:101C6000B9687869FFF78EFF024697F90F30114681
:101C70001846FFF75DFF00BF1837BD4680BD80B531
:101C800082B000AF0346FB7197F907301846FFF7A3
:101C900031FF00BF0837BD4680BD80B582B000AFC0
:101CA00078607868FFF7A2FF034618460837BD46FC
:101CB00080BD80B584B000AF78607B689B6DFB60B1
:101CC000FFF7DAFEB8607B6893F83530DBB2022BA1
:101CD00008D07B6880225A657B68002283F8342014
:101CE000012352E07B681B681A687B681B6822F03E
:101CF00016021A607B681B685A697B681B6822F0B1
:101D000080025A617B681B6C002B03D17B689B6C43
:101D1000002B07D07B681B681A687B681B6822F061
:101D200008021A607B681B681A687B681B6822F0CF
:101D300001021A6013E0FFF79FFE0246BB68D31A48
:101D4000052B0CD97B6820225A657B68032283F817
:101D500035207B68002283F83420032315E07B685C
:101D60001B681B6803F00103002BE4D17B68DB6D6B
:101D70003F229A40FB689A607B68012283F83520F5
:101D80007B68002283F83420002318461037BD46B4
:101D900080BD80B483B000AF78607B6893F8353045
:101DA000DBB2022B04D07B6880225A6501230CE051
:101DB0007B68052283F835207B681B681A687B687E
:101DC0001B6822F001021A60002318460C37BD463A
:101DD0005DF8047B7047000080B489B000AF786084
:101DE00039600023FB6100237B6100233B610023FA
:101DF000BB610023FB6175E10122FB6902FA03F379
:101E00007B613B681B687A6913403B613A697B6977
:101E10009A4240F064813B685B6803F00303012B46
:101E200005D03B685B6803F00303022B30D17B686D
:101E30009B68BB61FB695B00032202FA03F3DB438F
:101E4000BA691340BB613B68DA68FB695B0002FA60
:101E500003F3BA691343BB617B68BA699A607B6814
:101E60005B68BB610122FB6902FA03F3DB43BA69D9
:101E70001340BB613B685B681B0903F00102FB690F
:101E800002FA03F3BA691343BB617B68BA695A600B
:101E90003B685B6803F00303032B17D07B68DB68A8
:101EA000BB61FB695B00032202FA03F3DB43BA69FF
:101EB0001340BB613B689A68FB695B0002FA03F35D
:101EC000BA691343BB617B68BA69DA603B685B68D7
:101ED00003F00303022B23D1FB69DA087B68083285
:101EE00053F82230BB61FB6903F007039B000F220C
:101EF00002FA03F3DB43BA691340BB613B681A691A
:101F0000FB6903F007039B0002FA03F3BA6913436A
:101F1000BB61FB69DA087B680832B96943F82210B3
:101F20007B681B68BB61FB695B00032202FA03F359
:101F3000DB43BA691340BB613B685B6803F0030293
:101F4000FB695B0002FA03F3BA691343BB617B6868
:101F5000BA691A603B685B6803F44033002B00F0F9
:101F6000BE80664B5B6C654A43F480435364634BAD
:101F70005B6C03F48043FB60FB68614AFB699B0870
:101F8000023352F82330BB61FB6903F003039B006B
:101F90000F2202FA03F3DB43BA691340BB617B688B
:101FA000584A934237D07B68574A934231D07B6876
:101FB000564A93422BD07B68554A934225D07B6882
:101FC000544A93421FD07B68534A934219D07B688E
:101FD000524A934213D07B68514A93420DD07B689A
:101FE000504A934207D07B684F4A934201D109235C
:101FF00012E00A2310E008230EE007230CE006237A
:102000000AE0052308E0042306E0032304E002239A
:1020100002E0012300E00023FA6902F003029200CB
:102020009340BA691343BB613549FB699B0802338E
:10203000BA6941F823203D4B9B68BB613B69DB4398
:10204000BA691340BB613B685B6803F48013002BE3
:1020500003D0BA693B691343BB61344ABB699360DF
:10206000324BDB68BB613B69DB43BA691340BB6140
:102070003B685B6803F40013002B03D0BA693B692B
:102080001343BB61294ABB69D360284B5B68BB61C2
:102090003B69DB43BA691340BB613B685B6803F48F
:1020A0000033002B03D0BA693B691343BB611F4A5D
:1020B000BB6953601D4B1B68BB613B69DB43BA695D
:1020C0001340BB613B685B6803F48033002B03D093
:1020D000BA693B691343BB61144ABB691360FB696E
:1020E0000133FB61FB690F2B7FF686AE00BF00BF9B
:1020F0002437BD465DF8047B704700BF00380240BE
:102100000038014000000240000402400008024084
:10211000000C02400010024000140240001802406F
:10212000001C02400020024000240240003C01400C
:1021300080B485B000AF78600B467B807B681A69FD
:102140007B881340002B02D00123FB7301E00023A6
:10215000FB73FB7B18461437BD465DF8047B704764
:1021600080B483B000AF78600B467B8013467B70F1
:102170007B78002B03D07A887B689A6103E07B88A8
:102180001A047B689A6100BF0C37BD465DF8047B7A
:10219000704780B485B000AF78600B467B807B6869
:1021A0005B69FB607A88FB6813401A04FB68D943BB
:1021B0007B880B401A437B689A6100BF1437BD4689
:1021C0005DF8047B7047000080B582B000AF034625
:1021D000FB80084B5A69FB881340002B06D0054A48
:1021E000FB885361FB88184600F006F800BF0837EB
:1021F000BD4680BD003C014080B483B000AF0346C3
:10220000FB8000BF0C37BD465DF8047B70470000C3
:1022100080B400AF054B1B68044A43F4807313601D
:1022200000BFBD465DF8047B704700BF00700040F2
:1022300080B582B000AF00237B60234B1B6C224A29
:1022400043F080531364204B1B6C03F080533B60BE
:102250003B681E4B1B681D4A43F480331360FFF735
:102260000BFC786009E0FFF707FC02467B68D31A95
:10227000B3F57A7F01D9032322E0144B5B6803F4A2
:102280008033B3F5803FEED1104B1B680F4A43F407
:1022900000331360FFF7F0FB786009E0FFF7ECFB19
:1022A00002467B68D31AB3F57A7F01D9032307E08E
:1022B000064B5B6803F40033B3F5003FEED1002317
:1022C00018460837BD4680BD003802400070004007
:1022D00080B586B000AF78600023FB757B68002B6B
:1022E00001D1012391E27B681B6803F00103002BFD
:1022F00000F08780964B9B6803F00C03042B0CD0F6
:10230000934B9B6803F00C03082B12D1904B5B6836
:1023100003F48003B3F5800F0BD18D4B1B6803F4DE
:102320000033002B6CD07B685B68002B68D10123E5
:102330006BE27B685B68B3F5803F06D1844B1B681A
:10234000834A43F4803313602EE07B685B68002B84
:102350000CD17F4B1B687E4A23F4803313607C4B87
:102360001B687B4A23F4802313601DE07B685B6855
:10237000B3F5A02F0CD1764B1B68754A43F480232C
:102380001360734B1B68724A43F4803313600BE095
:102390006F4B1B686E4A23F4803313606C4B1B68D1
:1023A0006B4A23F4802313607B685B68002B13D097
:1023B000FFF762FB386108E0FFF75EFB02463B690E
:1023C000D31A642B01D903231FE2614B1B6803F46A
:1023D0000033002BF0D014E0FFF74EFB386108E02B
:1023E000FFF74AFB02463B69D31A642B01D903234A
:1023F0000BE2574B1B6803F40033002BF0D100E0D5
:1024000000BF7B681B6803F00203002B69D0504BB0
:102410009B6803F00C03002B0BD04D4B9B6803F023
:102420000C03082B1CD14A4B5B6803F48003002B80
:1024300016D1474B1B6803F00203002B05D07B68C5
:10244000DB68012B01D00123DFE1414B1B6823F046
:10245000F8027B681B69DB003D4913430B6040E0D9
:102460007B68DB68002B23D0394B1B68384A43F06C
:1024700001031360FFF700FB386108E0FFF7FCFA87
:1024800002463B69D31A022B01D90323BDE1304B2D
:102490001B6803F00203002BF0D02D4B1B6823F0C8
:1024A000F8027B681B69DB00294913430B6018E0C5
:1024B000274B1B68264A23F001031360FFF7DCFA61
:1024C000386108E0FFF7D8FA02463B69D31A022BBD
:1024D00001D9032399E11E4B1B6803F00203002B73
:1024E000F0D17B681B6803F00803002B38D07B68B1
:1024F0005B69002B19D0164B5B6F154A43F0010343
:102500005367FFF7B9FA386108E0FFF7B5FA0246FA
:102510003B69D31A022B01D9032376E10C4B5B6F85
:1025200003F00203002BF0D01AE0094B5B6F084A5E
:1025300023F001035367FFF79FFA38610AE0FFF7C2
:102540009BFA02463B69D31A022B03D903235CE1B1
:1025500000380240914B5B6F03F00203002BEED179
:102560007B681B6803F00403002B00F0A4808B4BF6
:102570001B6C03F08053002B0DD1884B1B6C874ADA
:1025800043F080531364854B1B6C03F08053BB6096
:10259000BB680123FB75824B1B6803F48073002B1F
:1025A00018D17F4B1B687E4A43F480731360FFF79A
:1025B00063FA386108E0FFF75FFA02463B69D31A15
:1025C000642B01D9032320E1754B1B6803F480734E
:1025D000002BF0D07B689B68012B06D16F4B1B6FE3
:1025E0006E4A43F0010313672DE07B689B68002B64
:1025F0000CD16A4B1B6F694A23F001031367674BC9
:102600001B6F664A23F0040313671CE07B689B681A
:10261000052B0CD1614B1B6F604A43F00403136719
:102620005E4B1B6F5D4A43F0010313670BE05B4B8E
:102630001B6F5A4A23F001031367584B1B6F574A0D
:1026400023F0040313677B689B68002B15D0FFF70A
:1026500013FA38610AE0FFF70FFA02463B69D31A12
:1026600041F28832934201D90323CEE04B4B1B6FDA
:1026700003F00203002BEED014E0FFF7FDF9386100
:102680000AE0FFF7F9F902463B69D31A41F28832B2
:10269000934201D90323B8E0404B1B6F03F00203C0
:1026A000002BEED1FB7D012B05D13C4B1B6C3B4A33
:1026B00023F0805313647B689B69002B00F0A48097
:1026C000364B9B6803F00C03082B6BD07B689B692F
:1026D000022B49D1314B1B68304A23F080731360C1
:1026E000FFF7CAF9386108E0FFF7C6F902463B690F
:1026F000D31A022B01D9032387E0284B1B6803F070
:102700000073002BF0D17B68DA697B681B6A1A437F
:102710007B685B6A9B011A437B689B6A5B08013B91
:102720001B041A437B68DB6A1B0613431B4A43F0F6
:1027300000535360194B1B68184A43F080731360B1
:10274000FFF79AF9386108E0FFF796F902463B690E
:10275000D31A022B01D9032357E0104B1B6803F057
:102760000073002BF0D04FE00C4B1B680B4A23F09A
:1027700080731360FFF780F9386108E0FFF77CF998
:1027800002463B69D31A022B01D903233DE0034BD8
:102790001B6803F00073002BF0D135E000380240D5
:1027A000007000401B4B5B68FB607B689B69012BE2
:1027B00028D0FB6803F480027B68DB699A4221D150
:1027C000FB6803F03F027B681B6A9A421AD1FA68E1
:1027D00047F6C07313407A68526A9201934211D14E
:1027E000FB6803F440327B689B6A5B08013B1B0477
:1027F0009A4207D1FB6803F070627B68DB6A1B06B4
:102800009A4201D0012300E0002318461837BD4644
:1028100080BD00BF0038024080B584B000AF786052
:1028200039600023FB607B68002B01D10123D0E0DD
:102830006A4B1B6803F00F033A689A4210D9674B42
:102840001B6823F00F0265493B6813430B60634B21
:102850001B6803F00F033A689A4201D00123B8E0E5
:102860007B681B6803F00203002B20D07B681B6889
:1028700003F00403002B05D0594B9B68584A43F4DE
:10288000E05393607B681B6803F00803002B05D0BE
:10289000534B9B68524A43F460439360504B9B6890
:1028A00023F0F0027B689B684D4913438B607B6883
:1028B0001B6803F00103002B40D07B685B68012B91
:1028C00007D1474B1B6803F40033002B15D10123BC
:1028D0007FE07B685B68022B07D1414B1B6803F0EC
:1028E0000073002B09D1012373E03D4B1B6803F0FB
:1028F0000203002B01D101236BE0394B9B6823F0CD
:1029000003027B685B68364913438B60FFF7B4F8BA
:10291000F8600AE0FFF7B0F80246FB68D31A41F20C
:102920008832934201D9032353E02D4B9B6803F077
:102930000C027B685B689B009A42EBD1274B1B68BB
:1029400003F00F033A689A4210D2244B1B6823F01D
:102950000F0222493B6813430B60204B1B6803F0B6
:102960000F033A689A4201D0012332E07B681B686A
:1029700003F00403002B08D0194B9B6823F4E052AA
:102980007B68DB68164913438B607B681B6803F028
:102990000803002B09D0124B9B6823F460427B682C
:1029A0001B69DB000E4913438B6000F021F80246DF
:1029B0000B4B9B681B0903F00F030A49CB5C22FAFF
:1029C00003F3094A1360094B1B681846FFF710F818
:1029D000002318461037BD4680BD00BF003C0240B2
:1029E0000038024058840008080000200C00002035
:1029F0002DE9B04F94B000AF00237B640023FB644B
:102A000000233B640023BB64794B9B6803F00C03F9
:102A1000082B0DD0082B00F2E180002B02D0042BF4
:102A200003D0DBE0734BBB64DBE0734BBB64D8E0EB
:102A30006F4B5B6803F03F037B646D4B5B6803F493
:102A40008003002B63D06A4B5B689B090022BB6349
:102A5000FA63BB6BC3F308033B6300237B63D7E9D3
:102A60000C4522462B464FF000004FF00001590163
:102A700041EAD261500102460B462146511A3961A2
:102A8000294663EB01037B614FF000024FF0000326
:102A9000D7E904AB59468B01514643EA916351464D
:102AA0008A015146B2EB0108594663EB01094FF028
:102AB00000024FF000034FEAC90343EA58734FEA9C
:102AC000C80290469946234618EB0303BB602B4689
:102AD00049EB0303FB604FF000024FF00003D7E91E
:102AE000024529464B02214643EAD15321464A0278
:102AF000104619467B6C0022BB62FA62D7E90A23B2
:102B0000FEF7BAF802460B461346FB6458E0384B12
:102B10005B689B09002218461146C0F308033B621C
:102B200000237B62D7E9088942464B464FF00000FC
:102B30004FF00001590141EAD261500102460B46B3
:102B40004146B2EB010A494663EB010B4FF000022C
:102B50004FF000034FEA8B1343EA9A634FEA8A125D
:102B6000B2EB0A0463EB0B054FF000024FF00003D9
:102B7000EB0043EA5473E20014461D464346E31853
:102B80003B604B4645EB03037B604FF000024FF088
:102B90000003D7E9004529468B02214643EA9153B9
:102BA00021468A02104619467B6C0022BB61FA61FD
:102BB000D7E90623FEF760F802460B461346FB648E
:102BC0000B4B5B681B0C03F0030301335B003B649E
:102BD000FA6C3B6CB2FBF3F3BB6402E0054BBB64E5
:102BE00000BFBB6C18465037BD46BDE8B08F00BF74
:102BF000003802400024F40000127A0080B400AFD4
:102C0000034B1B681846BD465DF8047B704700BF48
:102C10000800002080B500AFFFF7F0FF0246054B2B
:102C20009B689B0A03F007030349CB5C22FA03F37A
:102C3000184680BD003802406884000880B500AFA7
:102C4000FFF7DCFF0246054B9B685B0B03F00703B5
:102C50000349CB5C22FA03F3184680BD00380240DA
:102C60006884000880B588B000AF786000237B617D
:102C700000233B610023FB600023FB610023BB6159
:102C80007B681B6803F00103002B12D0694B9B6823
:102C9000684A23F400039360664B9A687B685B6B19
:102CA000644913438B607B685B6B002B01D101236C
:102CB000FB617B681B6803F40023002B17D05D4B7E
:102CC000D3F88C3023F440127B68DB6B59491343F3
:102CD000C1F88C307B68DB6BB3F5801F01D1012319
:102CE000FB617B68DB6B002B01D10123BB617B683F
:102CF0001B6803F48013002B17D04E4BD3F88C3095
:102D000023F440027B681B6C4A491343C1F88C30A2
:102D10007B681B6CB3F5800F01D10123FB617B68DD
:102D20001B6C002B01D10123BB617B681B6803F086
:102D30008073002B01D00123FB617B681B6803F0CB
:102D40002003002B00F08B803A4B1B6C394A43F078
:102D500080531364374B1B6C03F08053BB60BB681C
:102D6000354B1B68344A43F480731360FEF784FECE
:102D7000786108E0FEF780FE02467B69D31A642B77
:102D800001D9032357E32C4B1B6803F48073002BFA
:102D9000F0D0284B1B6F03F440733B613B69002B61
:102DA00035D07B681B6B03F440733A699A422ED08E
:102DB000204B1B6F23F440733B611E4B1B6F1D4A5E
:102DC00043F4803313671B4B1B6F1A4A23F4803381
:102DD0001367184A3B691367164B1B6F03F0010317
:102DE000012B14D1FEF748FE78610AE0FEF744FE9D
:102DF00002467B69D31A41F28832934201D90323F8
:102E000019E30C4B1B6F03F00203002BEED07B6821
:102E10001B6B03F44073B3F5407F11D1054B9B68E6
:102E200023F4F8127B68196B044B0B4001491343E0
:102E30008B600BE00038024000700040FFFCFF0F89
:102E4000AA4B9B68A94A23F4F8139360A74B1A6F07
:102E50007B681B6BC3F30B03A44913430B677B68AD
:102E60001B6803F01003002B10D0A04BD3F88C305C
:102E70009E4A23F08073C2F88C309C4BD3F88C2090
:102E80007B689B6B99491343C1F88C307B681B6846
:102E900003F48043002B0AD0944BD3F8903023F4F2
:102EA00040327B685B6E91491343C1F890307B6878
:102EB0001B6803F40043002B0AD08C4BD3F89030EE
:102EC00023F440227B689B6E88491343C1F89030FD
:102ED0007B681B6803F48033002B0AD0834BD3F844
:102EE000903023F440127B68DB6E80491343C1F8B5
:102EF00090307B681B6803F40033002B0AD07B4BB7
:102F0000D3F8903023F440027B681B6F774913435A
:102F1000C1F890307B681B6803F04003002B0AD097
:102F2000724BD3F8903023F003027B685B6C6F49DF
:102F30001343C1F890307B681B6803F08003002BBB
:102F40000AD06A4BD3F8903023F00C027B689B6C5C
:102F500066491343C1F890307B681B6803F48073A3
:102F6000002B0AD0614BD3F8903023F030027B68FD
:102F7000DB6C5E491343C1F890307B681B6803F437
:102F80000073002B0AD0594BD3F8903023F0C002C5
:102F90007B681B6D55491343C1F890307B681B68F3
:102FA00003F48063002B0AD0504BD3F8903023F405
:102FB00040727B685B6D4D491343C1F890307B686C
:102FC0001B6803F40063002B0AD0484BD3F8903001
:102FD00023F440627B689B6D44491343C1F89030F1
:102FE0007B681B6803F48053002B0AD03F4BD3F857
:102FF000903023F440527B68DB6D3C491343C1F8A9
:1030000090307B681B6803F40053002B0AD0374BC9
:10301000D3F8903023F440427B681B6E334913434E
:10302000C1F890307B681B6803F48003002B0AD042
:103030002E4BD3F8903023F080627B689B6F2B4936
:103040001343C1F890307B681B6803F40013002B16
:1030500011D0264BD3F8903023F000627B68DB6FF1
:1030600022491343C1F890307B68DB6FB3F1006FE6
:1030700001D10123BB617B681B6803F00803002BAF
:1030800001D00123BB617B681B6803F48023002B04
:103090000AD0164BD3F8903023F040727B685B6FF8
:1030A00012491343C1F890307B681B6803F4000396
:1030B000002B0BD00D4BD3F8903023F080527B685F
:1030C000D3F8803009491343C1F89030FB69012BD4
:1030D00006D07B681B6803F00073002B00F0D980DA
:1030E000024B1B68014A23F0806301E00038024074
:1030F0001360FEF7C1FC786108E0FEF7BDFC0246F4
:103100007B69D31A642B01D9032394E16C4B1B68B0
:1031100003F00063002BF0D17B681B6803F0010310
:10312000002B21D07B685B6B002B1DD1644BD3F847
:1031300084301B0C03F003033B61614BD3F88430F4
:103140001B0E03F00F03FB607B685B689A013B6911
:103150001B041A43FB681B061A437B689B681B070A
:1031600057491343C1F884307B681B6803F400237C
:10317000002B04D07B68DB6BB3F5801F0AD07B6823
:103180001B6803F48013002B2ED07B681B6CB3F5F7
:10319000800F29D14A4BD3F884301B0C03F0030372
:1031A0003B61474BD3F884301B0F03F00703FB60F0
:1031B0007B685B689A013B691B041A437B68DB6888
:1031C0001B061A43FB681B073D491343C1F88430B3
:1031D0003B4BD3F88C3023F01F027B685B6A013BCA
:1031E00037491343C1F88C307B681B6803F0807348
:1031F000002B1DD0324BD3F884301B0E03F00F038D
:103200003B612F4BD3F884301B0F03F00703FB60A7
:103210007B685B689A017B681B691B041A433B69E6
:103220001B061A43FB681B0725491343C1F884306A
:103230007B681B6803F00073002B11D07B685B6810
:103240009A017B681B691B041A437B68DB681B06B9
:103250001A437B689B681B0719491343C1F88430E4
:10326000174B1B68164A43F080631360FEF704FC9B
:10327000786108E0FEF700FC02467B69D31A642BF4
:1032800001D90323D7E00E4B1B6803F00063002B2A
:10329000F0D0BB69012B40F0CD80094B1B68084A78
:1032A00023F080531360FEF7E7FB78610AE0FEF736
:1032B000E3FB02467B69D31A642B03D90323BAE0EC
:1032C000003802405E4B1B6803F00053B3F1005F0F
:1032D000EDD07B681B6803F40023002B03D07B68D0
:1032E000DB6B002B09D07B681B6803F48013002B79
:1032F0002ED07B681B6C002B2AD1514BD3F8883021
:103300001B0C03F003033B614D4BD3F888301B0FBC
:1033100003F00703FB607B685B699A013B691B0450
:103320001A437B689B691B061A43FB681B074449C9
:103330001343C1F88830424BD3F88C3023F4F85251
:103340007B689B6A013B1B023D491343C1F88C30EB
:103350007B681B6803F40013002B22D07B68DB6FB3
:10336000B3F1006F1DD1364BD3F888301B0E03F03C
:103370000F033B61324BD3F888301B0F03F0070378
:10338000FB607B685B699A017B681B6A1B041A43BC
:103390003B691B061A43FB681B0729491343C1F805
:1033A00088307B681B6803F00803002B28D0244B6F
:1033B000D3F888301B0E03F00F033B61204BD3F88A
:1033C00088301B0C03F00303FB607B685B699A0188
:1033D000FB681B041A433B691B061A437B68DB69C5
:1033E0001B0717491343C1F88830154BD3F88C30AD
:1033F00023F440327B68DB6A11491343C1F88C30F7
:103400000F4B1B680E4A43F080531360FEF734FBEA
:10341000786108E0FEF730FB02467B69D31A642B23
:1034200001D9032307E0064B1B6803F00053B3F1F7
:10343000005FEFD1002318462037BD4680BD00BF96
:103440000038024080B582B000AF78607B68002B06
:1034500001D1012349E07B6893F83D30DBB2002BBA
:1034600006D17B68002283F83C207868FEF7CEF90D
:103470007B68022283F83D207B681A687B680433EE
:103480001946104600F0C0FA7B68012283F84820F4
:103490007B68012283F83E207B68012283F83F206D
:1034A0007B68012283F840207B68012283F8412059
:1034B0007B68012283F842207B68012283F8432045
:1034C0007B68012283F844207B68012283F8452031
:1034D0007B68012283F846207B68012283F847201D
:1034E0007B68012283F83D20002318460837BD463B
:1034F00080BD000080B485B000AF78607B6893F831
:103500003D30DBB2012B01D0012354E07B68022265
:1035100083F83D207B681B68DA687B681B6842F093
:103520000102DA607B681B68264A934222D07B68DE
:103530001B68B3F1804F1DD07B681B68224A934201
:1035400018D07B681B68214A934213D07B681B68A4
:103550001F4A93420ED07B681B681E4A934209D0D3
:103560007B681B681C4A934204D07B681B681B4A1B
:10357000934215D17B681B689A68194B1340FB6016
:10358000FB68062B15D0FB68B3F5803F11D07B6834
:103590001B681A687B681B6842F001021A6008E029
:1035A0007B681B681A687B681B6842F001021A601E
:1035B00000E000BF002318461437BD465DF8047BC9
:1035C000704700BF000001400004004000080040B8
:1035D000000C004000040140004001400018004081
:1035E0000700010080B582B000AF78607B681B687F
:1035F0001B6903F00203022B22D17B681B68DB6886
:1036000003F00203022B1BD17B681B686FF00202E0
:103610001A617B6801221A777B681B689B6903F03B
:103620000303002B03D0786800F0D0F905E0786838
:1036300000F0C2F9786800F0D3F97B6800221A77AD
:103640007B681B681B6903F00403042B22D17B6891
:103650001B68DB6803F00403042B1BD17B681B6829
:103660006FF004021A617B6802221A777B681B687C
:103670009B6903F44073002B03D0786800F0A6F92F
:1036800005E0786800F098F9786800F0A9F97B689F
:1036900000221A777B681B681B6903F00803082B5C
:1036A00022D17B681B68DB6803F00803082B1BD161
:1036B0007B681B686FF008021A617B6804221A7726
:1036C0007B681B68DB6903F00303002B03D0786879
:1036D00000F07CF905E0786800F06EF9786800F099
:1036E0007FF97B6800221A777B681B681B6903F0EF
:1036F0001003102B22D17B681B68DB6803F01003DA
:10370000102B1BD17B681B686FF010021A617B685D
:1037100008221A777B681B68DB6903F44073002B6F
:1037200003D0786800F052F905E0786800F044F9B9
:10373000786800F055F97B6800221A777B681B686F
:103740001B6903F00103012B0ED17B681B68DB684A
:1037500003F00103012B07D17B681B686FF00102A6
:103760001A617868FDF706FE7B681B681B6903F029
:103770008003802B0ED17B681B68DB6803F080031D
:10378000802B07D17B681B686FF080021A61786814
:1037900000F00CFB7B681B681B6903F48073B3F5B6
:1037A000807F0ED17B681B68DB6803F08003802B71
:1037B00007D17B681B686FF480721A61786800F02B
:1037C000FFFA7B681B681B6903F04003402B0ED196
:1037D0007B681B68DB6803F04003402B07D17B68E4
:1037E0001B686FF040021A61786800F003F97B688B
:1037F0001B681B6903F02003202B0ED17B681B681C
:10380000DB6803F02003202B07D17B681B686FF077
:1038100020021A61786800F0BFFA00BF0837BD4681
:1038200080BD000080B584B000AF786039600023AF
:10383000FB737B6893F83C30012B01D10223B4E089
:103840007B68012283F83C207B68022283F83D20BC
:103850007B681B689B68BB60BA68564B1340BB60B3
:10386000BB6823F47F43BB607B681B68BA689A60BF
:103870003B681B68B3F5005F3ED0B3F5005F00F214
:103880008780B3F5805F00F08680B3F5805F7FD8D6
:10389000702B1AD0702B7BD8602B50D0602B77D830
:1038A000502B3CD0502B73D8402B58D0402B6FD886
:1038B000302B64D0302B6BD8202B60D0202B67D8D6
:1038C000002B5CD0102B5AD062E07B6818683B68F4
:1038D00099683B685A683B68DB6800F0AFF97B6821
:1038E0001B689B68BB60BB6843F07703BB607B6869
:1038F0001B68BA689A604FE07B6818683B689968F3
:103900003B685A683B68DB6800F098F97B681B6885
:103910009A687B681B6842F480429A603CE07B684E
:1039200018683B6859683B68DB681A4600F00CF978
:103930007B681B685021184600F065F92CE07B6815
:1039400018683B6859683B68DB681A4600F02BF939
:103950007B681B686021184600F055F91CE07B6805
:1039600018683B6859683B68DB681A4600F0ECF859
:103970007B681B684021184600F045F90CE07B6825
:103980001A683B681B681946104600F03CF903E0D2
:103990000123FB7300E000BF7B68012283F83D2018
:1039A0007B68002283F83C20FB7B18461037BD461D
:1039B00080BD00BF88FFFEFF80B483B000AF786099
:1039C00000BF0C37BD465DF8047B704780B483B000
:1039D00000AF786000BF0C37BD465DF8047B7047D0
:1039E00080B483B000AF786000BF0C37BD465DF88F
:1039F000047B704780B483B000AF786000BF0C37A1
:103A0000BD465DF8047B704780B485B000AF786038
:103A100039607B681B68FB607B68404A934213D027
:103A20007B68B3F1804F0FD07B683D4A93420BD047
:103A30007B683C4A934207D07B683B4A934203D061
:103A40007B683A4A934208D1FB6823F07003FB601D
:103A50003B685B68FA681343FB607B682F4A9342BC
:103A60002BD07B68B3F1804F27D07B682C4A9342E0
:103A700023D07B682B4A93421FD07B682A4A93420B
:103A80001BD07B68294A934217D07B68284A93420F
:103A900013D07B68274A93420FD07B68264A934213
:103AA0000BD07B68254A934207D07B68244A934217
:103AB00003D07B68234A934208D1FB6823F4407308
:103AC000FB603B68DB68FA681343FB60FB6823F02C
:103AD00080023B685B691343FB607B68FA681A608D
:103AE0003B689A687B68DA623B681A687B689A620E
:103AF0007B680A4A934203D07B680C4A934203D105
:103B00003B681A697B681A637B6801225A6100BFAF
:103B10001437BD465DF8047B704700BF00000140CC
:103B20000004004000080040000C00400004014078
:103B3000004001400044014000480140001800409E
:103B4000001C00400020004080B487B000AFF86047
:103B5000B9607A60FB681B6A7B61FB681B6A23F0B3
:103B60000102FB681A62FB689B693B613B6923F0B9
:103B7000F0033B617B681B013A6913433B617B693E
:103B800023F00A037B617A69BB6813437B61FB689E
:103B90003A699A61FB687A691A6200BF1C37BD46B0
:103BA0005DF8047B704780B487B000AFF860B960FF
:103BB0007A60FB681B6A23F01002FB681A62FB68DC
:103BC0009B697B61FB681B6A3B617B6923F47043E3
:103BD0007B617B681B037A6913437B613B6923F03C
:103BE000A0033B61BB681B013A6913433B61FB685F
:103BF0007A699A61FB683A691A6200BF1C37BD4650
:103C00005DF8047B704780B485B000AF78603960A0
:103C10007B689B68FB60FB6823F07003FB603A687D
:103C2000FB68134343F00703FB607B68FA689A6004
:103C300000BF1437BD465DF8047B704780B487B081
:103C400000AFF860B9607A603B60FB689B687B619D
:103C50007B6923F47F437B613B681A027B681A43CC
:103C6000BB6813437A6913437B61FB687A699A6086
:103C700000BF1C37BD465DF8047B704780B485B03B
:103C800000AF786039607B6893F83C30012B01D13C
:103C900002236DE07B68012283F83C207B680222CE
:103CA00083F83D207B681B685B68FB607B681B6852
:103CB0009B68BB607B681B68304A934204D07B687A
:103CC0001B682F4A934208D1FB6823F47003FB6002
:103CD0003B685B68FA681343FB60FB6823F0700382
:103CE000FB603B681B68FA681343FB607B681B68DA
:103CF000FA685A607B681B68204A934222D07B682E
:103D00001B68B3F1804F1DD07B681B681D4A93422E
:103D100018D07B681B681C4A934213D07B681B68D1
:103D20001A4A93420ED07B681B68154A934209D009
:103D30007B681B68164A934204D07B681B68154A4F
:103D400093420CD1BB6823F08003BB603B689B6847
:103D5000BA681343BB607B681B68BA689A607B686B
:103D6000012283F83D207B68002283F83C20002359
:103D700018461437BD465DF8047B704700000140CB
:103D8000000401400004004000080040000C004016
:103D9000004001400018004080B483B000AF78605C
:103DA00000BF0C37BD465DF8047B704780B483B01C
:103DB00000AF786000BF0C37BD465DF8047B7047EC
:103DC00080B483B000AF786000BF0C37BD465DF8AB
:103DD000047B704780B582B000AF78607B68002BB1
:103DE00001D1012340E07B68DB6F002B06D17B68AB
:103DF000002283F878207868FDF75CFD7B68242238
:103E0000DA677B681B681A687B681B6822F001020E
:103E10001A60786800F01EFB0346012B01D10123D4
:103E200022E07B685B6A002B02D0786800F076FDA8
:103E30007B681B685A687B681B6822F490425A6052
:103E40007B681B689A687B681B6822F02A029A606C
:103E50007B681B681A687B681B6842F001021A6065
:103E6000786800F0FDFD034618460837BD4680BD62
:103E700080B5BAB000AF78607B681B68DB69C7F8B3
:103E8000E4307B681B681B68C7F8E0307B681B6800
:103E90009B68C7F8DC30D7F8E42040F60F031340E6
:103EA000C7F8D830D7F8D830002B15D1D7F8E43080
:103EB00003F02003002B0FD0D7F8E03003F02003ED
:103EC000002B09D07B689B6E002B00F097827B68EB
:103ED0009B6E7868984791E2D7F8D830002B00F0B5
:103EE0001781D7F8DC3003F00103002B06D1D7F897
:103EF000E020854B1340002B00F00A81D7F8E43016
:103F000003F00103002B11D0D7F8E03003F48073E5
:103F1000002B0BD07B681B6801221A627B68D3F8E8
:103F2000843043F001027B68C3F88420D7F8E43082
:103F300003F00203002B11D0D7F8DC3003F00103AB
:103F4000002B0BD07B681B6802221A627B68D3F8B7
:103F5000843043F004027B68C3F88420D7F8E4304F
:103F600003F00403002B11D0D7F8DC3003F0010379
:103F7000002B0BD07B681B6804221A627B68D3F885
:103F8000843043F002027B68C3F88420D7F8E43021
:103F900003F00803002B17D0D7F8E03003F020031C
:103FA000002B05D1D7F8DC3003F00103002B0BD038
:103FB0007B681B6808221A627B68D3F8843043F060
:103FC00008027B68C3F88420D7F8E43003F4006368
:103FD000002B12D0D7F8E03003F08063002B0CD018
:103FE0007B681B684FF400621A627B68D3F88430E8
:103FF00043F020027B68C3F884207B68D3F88430C8
:10400000002B00F0FD81D7F8E43003F02003002BF3
:104010000DD0D7F8E03003F02003002B07D07B68E9
:104020009B6E002B03D07B689B6E786898477B68FB
:10403000D3F88430C7F8D4307B681B689B6803F0E2
:104040004003402B05D0D7F8D43003F02803002BD1
:104050004FD0786800F001FE7B681B689B6803F016
:104060004003402B41D17B681B680833C7F89C3064
:10407000D7F89C3053E8003FC7F89830D7F898300D
:1040800023F04003C7F8D0307B681B680833D7F8AB
:10409000D020C7F8A820C7F8A430D7F8A410D7F8C4
:1040A000A82041E80023C7F8A030D7F8A030002BA3
:1040B000D9D17B685B6F002B13D07B685B6F134A91
:1040C0001A657B685B6F1846FDF763FE0346002B9D
:1040D00017D07B685B6F1B6D7A68526F10469847EC
:1040E0000FE0786800F0A0F90BE0786800F09CF928
:1040F00007E0786800F098F97B680022C3F8842014
:104100007EE100BF7CE100BF20010004234D0008D8
:104110007B681B6E012B40F04C81D7F8E43003F034
:104120001003002B00F04581D7F8E03003F01003B6
:10413000002B00F03E817B681B6810221A627B68AE
:104140001B689B6803F04003402B40F0B6807B68FF
:104150005B6F1B685B68A7F8BE30B7F8BE30002BFA
:1041600000F050817B68B3F85830B7F8BE209A420F
:1041700080F048817B68B7F8BE20A3F85A207B689E
:104180005B6FDB69B3F5807F00F086807B681B681E
:10419000C7F88830D7F8883053E8003FC7F8843034
:1041A000D7F8843023F48073C7F8B8307B681B6875
:1041B0001A46D7F8B830C7F89430C7F89020D7F827
:1041C0009010D7F8942041E80023C7F88C30D7F836
:1041D0008C30002BDAD17B681B6808337B677B6FE0
:1041E00053E8003F3B673B6F23F00103C7F8B4304F
:1041F0007B681B680833D7F8B420C7F88020FB67BA
:10420000F96FD7F8802041E80023BB67BB6F002B14
:10421000E1D17B681B6808333B663B6E53E8003F87
:10422000FB65FB6D23F04003C7F8B0307B681B686B
:104230000833D7F8B020FA66BB66B96EFA6E41E86B
:1042400000237B667B6E002BE3D17B682022C3F8C2
:1042500080207B6800221A667B681B68FB64FB6C0D
:1042600053E8003FBB64BB6C23F01003C7F8AC30CD
:104270007B681B681A46D7F8AC30BB657A65796DE8
:10428000BA6D41E800233B653B6D002BE4D17B68B0
:104290005B6F1846FDF70DFD7B6802225A667B684E
:1042A000B3F858207B68B3F85A309BB2D31A9BB24C
:1042B0001946786800F0C2F8A4E07B68B3F858208B
:1042C0007B68B3F85A309BB2D31AA7F8CE307B681C
:1042D000B3F85A309BB2002B00F09680B7F8CE307E
:1042E000002B00F091807B681B68BB63BB6B53E8BD
:1042F000003F7B637B6B23F49073C7F8C8307B6807
:104300001B681A46D7F8C8307B643A64396C7A6CFB
:1043100041E80023FB63FB6B002BE4D17B681B6847
:1043200008337B627B6A53E8003F3B623B6A23F0C1
:104330000103C7F8C4307B681B680833D7F8C42072
:104340003A63FB62F96A3A6B41E80023BB62BB6ADD
:10435000002BE3D17B682022C3F880207B680022F9
:104360001A667B6800229A667B681B683B613B6922
:1043700053E8003FFB60FB6823F01003C7F8C03030
:104380007B681B681A46D7F8C030FB61BA61B9690F
:10439000FA6941E800237B617B69002BE4D17B68EB
:1043A00002225A66B7F8CE301946786800F046F80F
:1043B0002AE0D7F8E43003F08003002B0ED0D7F8C2
:1043C000E03003F08003002B08D07B68DB6E002B0D
:1043D0001CD07B68DB6E7868984717E0D7F8E4302C
:1043E00003F04003002B12D0D7F8E03003F0400375
:1043F000002B0CD0786800F0AAFC08E000BF06E0B3
:1044000000BF04E000BF02E000BF00E000BFE837EB
:10441000BD4680BD80B483B000AF786000BF0C376C
:10442000BD465DF8047B704780B483B000AF786010
:1044300000BF0C37BD465DF8047B704780B483B085
:1044400000AF78600B467B8000BF0C37BD465DF83F
:10445000047B704780B588B000AF78600023BB77DD
:104460007B689A687B681B691A437B685B691A439F
:104470007B68DB6913437B617B681B681A68A64B0A
:1044800013407A68126879690B4313607B681B6874
:104490005B6823F440517B68DA687B681B680A43D9
:1044A0005A607B689B697B617B681B6A7A691343EE
:1044B0007B617B681B689B6823F430617B681B68A9
:1044C0007A690A439A607B681B68944A934220D1B8
:1044D000934BD3F8903003F00303032B16D801A2BB
:1044E00052F823F0F544000801450008FB44000899
:1044F000074500080123FB7750E10223FB774DE1DC
:104500000423FB774AE10823FB7747E11023FB777D
:1045100044E17B681B68834A934232D1804BD3F8D5
:10452000903003F00C030C2B28D801A252F823F092
:10453000654500087D4500087D4500087D4500086B
:10454000714500087D4500087D4500087D4500084F
:104550006B4500087D4500087D4500087D45000845
:10456000774500080023FB7718E10223FB7715E16C
:104570000423FB7712E10823FB770FE11023FB777D
:104580000CE17B681B68684A934220D1644BD3F8E6
:10459000903003F03003302B13D0302B14D8202B65
:1045A00009D0202B10D8002B02D0102B06D00BE006
:1045B0000023FB77F2E00223FB77EFE00423FB7795
:1045C000ECE00823FB77E9E01023FB77E6E07B686B
:1045D0001B68564A934220D1514BD3F8903003F0D8
:1045E000C003C02B13D0C02B14D8802B09D0802B34
:1045F00010D8002B02D0402B06D00BE00023FB7715
:10460000CCE00223FB77C9E00423FB77C6E0082354
:10461000FB77C3E01023FB77C0E07B681B68444A4C
:10462000934225D13E4BD3F8903003F44073B3F559
:10463000407F17D0B3F5407F17D8B3F5007F0BD07C
:10464000B3F5007F11D8002B03D0B3F5807F06D0DF
:104650000BE00023FB77A1E00223FB779EE004231D
:10466000FB779BE00823FB7798E01023FB7795E02E
:104670007B681B682F4A934225D1294BD3F8903091
:1046800003F44063B3F5406F17D0B3F5406F17D80C
:10469000B3F5006F0BD0B3F5006F11D8002B03D02A
:1046A000B3F5806F06D00BE00123FB7776E00223A1
:1046B000FB7773E00423FB7770E00823FB776DE062
:1046C0001023FB776AE07B681B681B4A934238D152
:1046D000134BD3F8903003F44053B3F5405F17D039
:1046E000B3F5405F2AD8B3F5005F0BD0B3F5005F98
:1046F00024D8002B03D0B3F5805F06D01EE0002342
:10470000FB774BE00223FB7748E00423FB7745E08F
:104710000823FB7742E000BFF369FFEF0010014080
:10472000003802400044004000480040004C004077
:104730000050004000140140007800401023FB7737
:104740002CE07B681B68724A934225D1714BD3F8E9
:10475000903003F44043B3F5404F17D0B3F5404FCA
:1047600017D8B3F5004F0BD0B3F5004F11D8002B7D
:1047700003D0B3F5804F06D00BE00023FB770DE0AC
:104780000223FB770AE00423FB7707E00823FB778B
:1047900004E01023FB7701E01023FB777B68DB69E3
:1047A000B3F5004F5BD1FB7F082B28D801A252F84C
:1047B00023F000BFD9470008E1470008E947000897
:1047C000FF470008EF470008FF470008FF470008C1
:1047D000FF470008F7470008FEF71CFAB86113E02E
:1047E000FEF72CFAB8610FE04B4BBB610CE0FEF713
:1047F000FFF8B86108E04FF40043BB6104E0002318
:10480000BB610123BB7700BFBB69002B74D0BB69C0
:104810005A007B685B685B081A447B685B68B2FB84
:10482000F3F33B613B690F2B16D93B69B3F5803F2E
:1048300012D23B699BB223F00F03FB813B695B08FB
:104840009BB203F007039AB2FB891343FB817B6899
:104850001B68FA89DA604FE00123BB774CE0FB7FED
:10486000082B28D801A252F823F000BF9148000875
:1048700099480008A1480008B7480008A748000860
:10488000B7480008B7480008B7480008AF48000814
:10489000FEF7C0F9B86113E0FEF7D0F9B8610FE098
:1048A0001D4BBB610CE0FEF7A3F8B86108E04FF4C4
:1048B0000043BB6104E00023BB610123BB7700BF61
:1048C000BB69002B18D07B685B685A08BB691A4427
:1048D0007B685B68B2FBF3F33B613B690F2B09D943
:1048E0003B69B3F5803F05D23B699AB27B681B6890
:1048F000DA6001E00123BB777B6800229A667B685F
:104900000022DA66BB7F18462037BD4680BD00BF57
:10491000007C0040003802400024F40080B483B0E2
:1049200000AF78607B685B6A03F00103002B0AD05C
:104930007B681B685B6823F400317B689A6A7B683C
:104940001B680A435A607B685B6A03F00203002B12
:104950000AD07B681B685B6823F480317B68DA6A65
:104960007B681B680A435A607B685B6A03F0040338
:10497000002B0AD07B681B685B6823F480217B686E
:104980001A6B7B681B680A435A607B685B6A03F09A
:104990000803002B0AD07B681B685B6823F4004186
:1049A0007B685A6B7B681B680A435A607B685B6A4A
:1049B00003F01003002B0AD07B681B689B6823F46C
:1049C00080517B689A6B7B681B680A439A607B689E
:1049D0005B6A03F02003002B0AD07B681B689B688E
:1049E00023F400517B68DA6B7B681B680A439A608A
:1049F0007B685B6A03F04003002B1AD07B681B685E
:104A00005B6823F480117B681A6C7B681B680A431F
:104A10005A607B681B6CB3F5801F0AD17B681B68EA
:104A20005B6823F4C0017B685A6C7B681B680A438F
:104A30005A607B685B6A03F08003002B0AD07B68B6
:104A40001B685B6823F400217B689A6C7B681B6899
:104A50000A435A6000BF0C37BD465DF8047B7047BF
:104A600080B586B002AF78607B680022C3F88420EE
:104A7000FDF702F8F8607B681B681B6803F0080309
:104A8000082B0ED16FF07E430093FB6800224FF499
:104A90000011786800F01BF80346002B01D00323B7
:104AA00011E07B682022DA677B682022C3F880202F
:104AB0007B6800221A667B6800225A667B680022A7
:104AC00083F87820002318461037BD4680BD80B596
:104AD0009CB000AFF860B9603B601346FB71A7E083
:104AE000BB6FB3F1FF3F00F0A380FCF7C5FF0246A8
:104AF0003B68D31ABA6F9A4202D3BB6F002B3FD1E7
:104B0000FB681B683B653B6D53E8003FFB64FB6C37
:104B100023F4D0737B66FB681B681A467B6EFB65CB
:104B2000BA65B96DFA6D41E800237B657B6D002B9A
:104B3000E6D1FB681B680833FB63FB6B53E8003F5F
:104B4000BB63BB6B23F001033B66FB681B68083348
:104B50003A6EBA647B64796CBA6C41E800233B64BA
:104B60003B6C002BE5D1FB682022DA67FB68202232
:104B7000C3F88020FB68002283F87820032368E0D4
:104B8000FB681B681B6803F00403002B50D0FB6814
:104B90001B68DB6903F40063B3F5006F48D1FB6861
:104BA0001B684FF400621A62FB681B68BB62BB6A39
:104BB00053E8003F7B627B6A23F4D073FB66FB689B
:104BC0001B681A46FB6E7B633A63396B7A6B41E86C
:104BD0000023FB62FB6A002BE6D1FB681B680833ED
:104BE0007B617B6953E8003F3B613B6923F0010334
:104BF000BB66FB681B680833BA6E3A62FB61F969F1
:104C00003A6A41E80023BB61BB69002BE5D1FB6830
:104C10002022DA67FB682022C3F88020FB6820226C
:104C2000C3F88420FB68002283F87820032310E077
:104C3000FB681B68DA69BB681340BA689A420CBF0C
:104C400001230023DBB21A46FB799A423FF448AFB6
:104C5000002318467037BD4680BD80B495B000AFC4
:104C600078607B681B687B637B6B53E8003F3B632A
:104C70003B6B23F49073FB647B681B681A46FB6CE8
:104C80003B64FA63F96B3A6C41E80023BB63BB6B8E
:104C9000002BE6D17B681B6808333B623B6A53E814
:104CA000003FFB61FB6923F00103BB647B681B6869
:104CB0000833BA6CFA62BB62B96AFA6A41E8002347
:104CC0007B627B6A002BE5D17B681B6E012B18D1C0
:104CD0007B681B68FB60FB6853E8003FBB60BB68F8
:104CE00023F010037B647B681B681A467B6CBB61F6
:104CF0007A617969BA6941E800233B613B69002B1D
:104D0000E6D17B682022C3F880207B6800221A66E7
:104D10007B6800229A6600BF5437BD465DF8047B6D
:104D2000704780B584B000AF78607B689B6BFB6098
:104D3000FB680022A3F85A20FB680022A3F8522047
:104D4000F868FFF771FB00BF1037BD4680BD80B526
:104D500088B000AF78607B681B68FB60FB6853E835
:104D6000003FBB60BB6823F04003FB617B681B68AE
:104D70001A46FB69BB617A617969BA6941E8002327
:104D80003B613B69002BE6D17B682022DA677B68B8
:104D90000022DA667868FFF73DFB00BF2037BD468A
:104DA00080BD0000014B1868704700BF1400002050
:104DB00070B50D4D0D4C641BA4100026A64209D100
:104DC0000B4D0C4C03F03AFB641BA4100026A642CA
:104DD00005D170BD55F8043B98470136EEE755F80C
:104DE000043B98470136F2E7B4880008B48800080D
:104DF000B4880008B888000802440346934200D1F2
:104E0000704703F8011BF9E72DE9F04F87B017460B
:104E100003938B685A1EB2F5AE7F83BF6FF4AE75F5
:104E20005B190293002386BF40F25D138B600293EF
:104E30000B688B46002543F4F0634BF81C3BCDE92F
:104E4000045580460C465E46AA46A9460195A268CE
:104E500052B13B681B784E2B64D8402B3CD8A3F151
:104E60002B01C8B20E283AD9B9F1000F03D023683C
:104E700023F4807323600AF1FF3ABAF1010F00F2C4
:104E800013815E4500F205810125284607B0BDE883
:104E9000F08FA3F161020D2AE6D801A151F822F0AA
:104EA000DF4F0008694E0008694E0008694E00088F
:104EB0003F50000817500008694E0008694E00086E
:104EC000ED4F0008694E0008694E0008694E000861
:104ED000694E0008A54F0008A3F14102DBE70E2947
:104EE000C2D801A050F821F0974F0008694E000881
:104EF000974F00082B500008694E0008454F0008E6
:104F0000814F0008814F0008814F0008814F000841
:104F1000814F0008814F0008814F0008814F000831
:104F2000814F00086E2B09D8602BB2D8542B77D054
:104F3000592B99D1072D97D1082529E0742B6FD0D3
:104F4000792BF6E72168C8051AD5029B21F080016C
:104F5000216009F101091BB1013B01320293A260FA
:104F6000A368013BA3602369013323617B68013B94
:104F7000002B7B6040F384803B6801333B6066E735
:104F80001AEB050F7FF470AF226822F4C072226022
:104F900006F8013BE4E7226810067FF565AF22F0D2
:104FA0008002F4E7BAF1000F0ED1B9F1000F0ED173
:104FB000226802F4E061B1F5E06F08D122F4F062FA
:104FC00022604FF0010AE3E7BAF1020F55D0012D3C
:104FD00002D0042D7FF448AF0135EDB2D8E7BAF125
:104FE000010F7FF441AF4FF0020AD1E77DB9B9F16B
:104FF000000F7FF43CAF226802F4E061B1F5E06F8E
:105000007FF439AF22F4F06222600125C0E7032D5E
:10501000E2D0052DDEE7022D7FF426AF0325B7E7AA
:10502000062D7FF421AF0725B2E7226891057FF5B1
:105030001BAF22F420722260CDF80490A8E722680A
:1050400002F4A061B1F5806F06D050057FF50CAF7A
:10505000B9F1000F3FF40FAF910558BF019922F449
:10506000F06258BFA9EB010142F4C07258BFCDE90C
:10507000041622604FF000098AE74FF0030A87E721
:10508000D4F8803139464046984700283FF4DFAED7
:10509000EAE6D4F87C3116F8011D3A4640469847B6
:1050A0002369013B2361ECE66B1E062B25D8022DFC
:1050B00036D85E457FF6E8AED4F87C3116F8011D8F
:1050C0003A46404698472369013B2361F1E702983D
:1050D000D4F87C3110F8011D02903A4640469847BA
:1050E0002369013B23610AF1FF3A5FFA8AFABAF1B8
:1050F000020FECD1033DEDB2761B2368DA052FD504
:105100005B0510D55E457FF6BFAED4F87C3116F84E
:10511000011D3A46404698472369013B2361F1E768
:10512000AA460296DFE716F8011C2369652903F1F8
:10513000FF3306F1FF3523610CD045290AD0D4F89E
:105140007C313A4640469847236916F8021C013BD9
:10515000B51E2361D4F87C313A46404698472E4626
:10516000256815F0100559D13570236803F4C06324
:10517000B3F5806F1BD1019B4B45A3EB090223D1F3
:1051800000225946404600F0ADFE2268039B12F013
:10519000020F57EC106B1B6821D003991A1D0A608F
:1051A0001B68C3E90067E3680133E3606DE6049BB5
:1051B000002BE5D005990A232A460131404600F02C
:1051C00019FF049B059EC21A04F26F139E4228BF6A
:1051D00004F5B7761249304600F02CF8D0E7039971
:1051E00012F0040F03F104020A60D9D1D3F8008051
:1051F00010EE102A10EE100A3B463946FBF7B6FCBB
:1052000028B1084800F010F888ED000ACBE73046D6
:105210003946FBF7E1FCC8F80000C4E7002534E696
:1052200074840008AA8800089FED010A704700BF37
:105230000000C07F0EB400B59CB01DAB029006907C
:105240006FF00041094807910491094953F8042B74
:1052500005910068019302A902F050FB029B002215
:105260001A701CB05DF804EB03B070471400002006
:105270000802FFFF10B57AB103460139841813F80C
:10528000010B11F8012F904201D1A34201D1801AE4
:1052900010BD0028F3D1FAE71046F9E770B50446CF
:1052A0000D4645EC104B164602F086F851EC100BFB
:1052B0007EB1C5F30A53C3F16B03002B09DD1B0557
:1052C00003F17F55002405F5401522462B46FBF7D8
:1052D000B3F970BD000000002DE9F04F2DED028BF9
:1052E0009DB01F4600231893A24B13921B68059391
:1052F000044618468846FAF78BFF4FF0000A054629
:105300004FF0000BCDF85C80179B1A782B2A4ED0FB
:105310003BD80D2A34D8082A34D8002A3ED000239E
:105320000A93179E3378302B40F0B080737803F0E7
:10533000DF03582B68D10A9B019318AB02970093A7
:105340008D4A19AB17A9204601F034F910F0070770
:10535000054605D0062F2CD10136002317960A9357
:10536000139B002B40F090850A9BEBB152460BF14A
:10537000004343EC102B1DB0BDEC028BBDE8F08F59
:10538000202ACCD101331793BEE72D2AC7D10122A1
:105390000A925A1C17925B78002BC2D1139BCDF84E
:1053A0005C80002B40F06E8552465B46E1E70022B0
:1053B000EEE7189A3AB135211AA802F008F91899BF
:1053C000204601F0C7FC013F042F06D8DFE807F0B4
:1053D0000A0314170A00DDE91AAB2807C0D54BF001
:1053E000004BBDE7DDE91AA3199A23F4801302F2FA
:1053F000334243EA025BF0E7DFF880B1EDE76FF09C
:10540000004B4FF0FF3AE8E7179B5A1C17925B7866
:10541000302BF9D0002BA3D001234FF000090493C7
:10542000179B0893CDF81C904F460A2217980678D0
:10543000A6F13003D9B209292AD905992A46FFF7DE
:1054400019FF98B3002032463D4605900346652A71
:1054500001D0452A18D11DB9049A02439ED00025D7
:10546000DDF85C8008F10102179298F801202B2AE0
:1054700075D02D2A7BD04FF0000CA2F13001092904
:1054800040F28280CDF85C8000269DE00023C4E7D6
:10549000082FD8BF079900F10100DABF02FB0133E2
:1054A000079302FB093901371790BFE7179B5A1979
:1054B00017925A5D002F37D005903D46A2F1300378
:1054C000092B12D90123C2E7179B5A1C17925A784D
:1054D0000130302AF8D0A2F13103082B00F2D98430
:1054E000179B0590002008930546303A00F1010310
:1054F00014D00599194405912B4600EB050E0A219D
:10550000734513D12B18082B05F1010505441CDC4C
:1055100007990A2303FB012307930023179A511CC1
:10552000179152781846C9E73846D2E7082B04DCB1
:10553000079E4E4307960133E2E703F1010CBCF1ED
:10554000100FD8BF01FB09F9F5E7102DDCBF0A23C6
:1055500003FB0929E1E70023059301237CE74FF0D2
:10556000000C08F10202179298F8022085E74FF02C
:10557000010CF6E7B4860008888400080000F07F7C
:10558000179A511C17915278302AF9D0A2F13101A3
:1055900008293FF679AFA2F1300E179A0692179AB2
:1055A000511C17915278A2F13006092E37D9069E68
:1055B000891B082944F61F6602DC7645A8BF76469B
:1055C000BCF1000F00D07642002D4DD1049901436B
:1055D0007FF4C6AE002B7FF4E1AE692A27D024DC2D
:1055E000492A24D04E2A7FF4D9AE9F4917A801F04A
:1055F00039FA00283FF4D2AE179B1B78282B2DD107
:105600009A491AAA17A801F041FA052826D11B9B2E
:10561000DDF868A043F0FF4B4BF4E00BA0E60A2155
:1056200001FB0E2EAEF1300EB9E76E2ADBE7904992
:1056300017A801F017FA00283FF4B0AE179B8D4968
:10564000013B17A8179301F00DFA10B9179B01330E
:105650001793DFF830B24FF0000A81E6864802F077
:10566000E3FB5BEC10AB7BE6059B0798F31A002F7E
:1056700008BF2F46102D0693A846A8BF4FF010086C
:10568000FAF760FF092D82468B4613DD7B4B03EB57
:10569000C80353E91223FAF7CFFF824648468B46E8
:1056A000FAF750FF02460B4650465946FAF70EFEEF
:1056B00082468B460F2D38DC069B002B3FF450AE04
:1056C00024DD162B0BDC6D4901EBC301D1E9000190
:1056D00052465B46FAF7B0FF82468B4640E6069A92
:1056E000C5F12503934220DB644CC5F10F0504EBA3
:1056F000C50152465B46D1E90001FAF79DFF069BC2
:105700005D1B04EBC504D4E90023E3E7069B1633D5
:105710000BDB059B9E1B594B03EBC606D6E900230A
:1057200050465946FBF7B2F8D6E7069BA5EB0808AA
:105730009844B8F1000F74DD18F00F030AD04F49F8
:1057400001EBC30152465B46D1E90001FAF774FF51
:1057500082468B4638F00F084FD0B8F59A7F22DD8D
:1057600000252E46079505952223DFF818B1236002
:105770004FF0000A079B002B3FF4F2AD189920462A
:1057800001F0E8FA0599204601F0E4FA3146204696
:1057900001F0E0FA0799204601F0DCFA294620469C
:1057A00001F0D8FADCE5364B049300234FEA2818C1
:1057B000504659469946B8F1010F21DC0BB182469B
:1057C0008B462F4BABF1547B03EBC90952465B462A
:1057D000D9E90001FAF730FF2A4B0A460B402A4963
:1057E0008B428246BCD8A1F580118B4286BFDFF880
:1057F0009CB04FF0FF3A02F1547B0023049384E005
:1058000018F0010F05D0049BD3E90023FAF714FF29
:105810000123049A083209F101094FEA6808049249
:10582000C9E7EAD0C8F1000818F00F020AD0134BFC
:1058300003EBC20350465946D3E90023FBF726F891
:1058400082468B465FEA2818D7D0B8F11F0F1FDDBC
:1058500000252E460795059522234FF0000A4FF0AC
:10586000000B236086E700BF828400089C84000848
:10587000798400087C840008AA88000868870008EA
:10588000408700080000F07F0000A07CFFFFEF7F52
:1058900018F0100318BF6A23DFF8AC930493504646
:1058A0005946002318F0010F04D0D9E90023FAF774
:1058B000C3FE01235FEA680809F10809F2D10BB1C0
:1058C00082468B46049BC3B1CBF30A52C2F16B03F1
:1058D000002B594611DD1F2B40F32481342BDEBFF2
:1058E000C2F14B024FF0FF3303FA02F24FF0000A0D
:1058F000CCBF4FF05C7B02EA010B00220023504634
:105900005946FBF701F90028A2D1079B009308999B
:105910002B463A46204601F085FA079000283FF4CE
:105920001FAF059B9E1B069B002BB4BF3346002375
:105930000C93069B002523EAE37312932E46079BE4
:105940002046596801F0C6F9059000283FF40CAFD5
:10595000079B1A69023203F10C0192000C3001F02E
:10596000ABF94BEC10AB1AAA19A9204601F0A0FD27
:105970004BEC18AB189000283FF4F6AE01212046FE
:1059800001F0EAFA064600283FF4EEAE199B0499AE
:10599000002BABBF0C9A129A129FDDF83090ACBF6F
:1059A00003EB0209D71A1A9AA3EB01089044A14B02
:1059B00008F1FF389845C2F1360280F2C780A3EBA8
:1059C00008031F2BA2EB03024FF0010100F3B1808B
:1059D00001FA03F30D930023089309EB0208049BDB
:1059E000C14517441F444B46A8BF4346BB42A8BF0E
:1059F0003B46002BC2BFA8EB0308FF1AA9EB030923
:105A00000C9B002B17DD31461A46204601F064FB43
:105A1000064600283FF4A8AE0146189A204601F039
:105A2000B1FA0B9000283FF49FAE1899204601F080
:105A300091F90B9B1893B8F1000F00F38C80069B33
:105A4000002B08DD129A0599204601F045FB0590D0
:105A500000283FF489AE002F08DD05993A4620461C
:105A600001F094FB059000283FF47EAEB9F1000FE1
:105A700008DD31464A46204601F088FB06460028EC
:105A80003FF472AE059A1899204601F00BFC0546CA
:105A900000283FF469AEC3680B930023C36031460E
:105AA00001F0E4FB002860DA0B9B53EA0A0340F0A4
:105AB0008280CBF31303002B7DD12BF000431B0D11
:105AC0001B05B3F1D66F76D96B6913B92B69012B1E
:105AD00071DD29460122204601F058FB314605467A
